[20210312-18:56:54.781721] 8=FIX.4.2|9=97|35=0|34=8657|49=WEXDROP3|52=20210313-18:56:54.782|56=GLBRDROP3|152=ch4pxgvdc230.gelbergroup.com;|10=216|
[20210312-18:57:00.231570] 8=FIX.4.2|9=66|35=0|52=20210313-18:57:00.221|34=8940085|49=WEXDROP3|56=GLBRDROP3|10=239|
[20210312-18:57:21.786551] 8=FIX.4.2|9=97|35=0|34=8658|49=WEXDROP3|52=20210313-18:56:54.782|56=GLBRDROP3|152=ch4pxgvdc230.gelbergroup.com;|10=217|
[20210312-18:57:30.259353] 8=FIX.4.2|9=66|35=0|52=20210313-18:57:30.249|34=8940086|49=WEXDROP3|56=GLBRDROP3|10=253|
[20210312-18:57:48.789003] 8=FIX.4.2|9=97|35=0|34=8659|49=WEXDROP3|52=20210313-18:57:48.789|56=GLBRDROP3|152=ch4pxgvdc230.gelbergroup.com;|10=229|
[20210312-18:58:00.284330] 8=FIX.4.2|9=66|35=0|52=20210313-18:58:00.274|34=8940087|49=WEXDROP3|56=GLBRDROP3|10=250|
[20210312-18:58:15.791566] 8=FIX.4.2|9=97|35=0|34=8660|49=WEXDROP3|52=20210313-18:58:15.792|56=GLBRDROP3|152=ch4pxgvdc230.gelbergroup.com;|10=210|
[20210312-18:58:30.311832] 8=FIX.4.2|9=66|35=0|52=20210313-18:58:30.302|34=8940088|49=WEXDROP3|56=GLBRDROP3|10=246|
[20210312-18:58:42.793857] 8=FIX.4.2|9=97|35=0|34=8661|49=WEXDROP3|52=20210313-18:58:42.794|56=GLBRDROP3|152=ch4pxgvdc230.gelbergroup.com;|10=213|
[20210312-18:59:00.338549] 8=FIX.4.2|9=66|35=0|52=20210313-18:59:00.328|34=8940089|49=WEXDROP3|56=GLBRDROP3|10=253|
